:040000006F00E02B82
:100004000000000000000000A0010000A2010000A8
:1000140000000000BC02000000000000000000001E
:10002400BC020000BC020000000000000000000050
:10003400BC02000000000000BC0200000000000040
:10004400BC020000BC020000BC020000BC020000B4
:10005400BC020000BC020000BC020000BC020000A4
:10006400BC020000BC020000BC020000BC02000094
:10007400BC020000BC020000BC020000BC02000084
:10008400BC020000BC020000BC020000BC02000074
:10009400BC020000BC020000BC020000BC02000064
:1000A400BC020000BC020000BC020000BC02000054
:1000B400BC020000BC020000BC020000BC02000044
:1000C400BC020000BC020000BC020000BC02000034
:1000D400BC020000BC020000BC020000BC02000024
:1000E400BC020000BC020000BC020000BC02000014
:1000F400BC020000BC020000BC020000BC02000004
:10010400BC020000BC020000BC020000BC020000F3
:10011400BC020000BC02000000000000000000005F
:1001240000000000000000000000000000000000CB
:0C013400000000000000000000000000BF
:10014000397101436EC619A0397141536AC866CA34
:1001500062CC5ECE19A0397101535AD056D252D416
:100160004ED64AD826DA22DC06DE3301614082828E
:1001700041114AC026C222C406C68282B24D410144
:10018000024D924C224CB24B4101024B924A224A00
:10019000B2494101024992442244B2404101828065
:1001A00001A0B707EFBE37E700E0938707083CC719
:1001B00001A0371702401C4FC166C11693E74700E4
:1001C0001CCFB7170140938707809843758F98C35A
:1001D00098431367770098C38280416711E182805A
:1001E0009307F7FF0100FD17F5FF7D15C5BFEFF27F
:1001F0003FF8B7470240938707809843B706C1FF8F
:10020000FD161367070198C3B7170240D843D8C338
:10021000D843D8C3D84313670740D8C3D843758F92
:10022000D8C3D843B7063C00558FD8C39843B70608
:100230000001558F98C3B70600029843758F75DF8C
:10024000D843B7160240719BD8C3D8431367270021
:10025000D8C32147DC42B18BE39EE7FE993F3719B3
:10026000014085441305F00F8D3F1304098004C835
:100270001305F00F9D3744C8F5B7B71702409843F0
:10028000B706FFF01367170098C3D843758FD8C31C
:100290009843B706F7FEFD16758F98C39843B706C7
:1002A000FCFFFD16758F98C3D843B70601FFFD16F6
:1002B000758FD8C337079F0098C7828001A0970128
:1002C000002093812154170101201301A1D31305AC
:1002D000C034970500209385E5D217060020130649
:1002E00066D263FAC5008322050023A055001105DC
:1002F0009105E3EAC5FE170500201305A5D0970573
:100300000020938525D06377B500232005001105D3
:10031000E36DB5FEFD42739002BC8D427390428046
:100320009302800873900230970200009382C2CD3E
:1003300093E2320073905230EFF03FF497020000E6
:0C034000938222EB739012347300203083
:00000001FF
